{
  "contractName": "PinningManager",
  "abi": [
    {
      "anonymous": false,
      "inputs": [
        {
          "indexed": true,
          "internalType": "address",
          "name": "storer",
          "type": "address"
        },
        {
          "indexed": false,
          "internalType": "uint256",
          "name": "capacity",
          "type": "uint256"
        }
      ],
      "name": "CapacitySet",
      "type": "event"
    },
    {
      "anonymous": false,
      "inputs": [
        {
          "indexed": true,
          "internalType": "bytes32",
          "name": "requestReference",
          "type": "bytes32"
        }
      ],
      "name": "EarningsWithdrawn",
      "type": "event"
    },
    {
      "anonymous": false,
      "inputs": [
        {
          "indexed": true,
          "internalType": "address",
          "name": "storer",
          "type": "address"
        },
        {
          "indexed": false,
          "internalType": "uint128",
          "name": "maximumDuration",
          "type": "uint128"
        }
      ],
      "name": "MaximumDurationSet",
      "type": "event"
    },
    {
      "anonymous": false,
      "inputs": [
        {
          "indexed": true,
          "internalType": "address",
          "name": "storer",
          "type": "address"
        },
        {
          "indexed": false,
          "internalType": "uint64",
          "name": "period",
          "type": "uint64"
        },
        {
          "indexed": false,
          "internalType": "uint64",
          "name": "price",
          "type": "uint64"
        }
      ],
      "name": "PriceSet",
      "type": "event"
    },
    {
      "anonymous": false,
      "inputs": [
        {
          "indexed": true,
          "internalType": "bytes32",
          "name": "requestReference",
          "type": "bytes32"
        }
      ],
      "name": "RequestAccepted",
      "type": "event"
    },
    {
      "anonymous": false,
      "inputs": [
        {
          "indexed": true,
          "internalType": "bytes32[]",
          "name": "fileReference",
          "type": "bytes32[]"
        },
        {
          "indexed": true,
          "internalType": "address",
          "name": "requester",
          "type": "address"
        },
        {
          "indexed": true,
          "internalType": "address",
          "name": "provider",
          "type": "address"
        },
        {
          "indexed": false,
          "internalType": "uint120",
          "name": "size",
          "type": "uint120"
        },
        {
          "indexed": false,
          "internalType": "uint64",
          "name": "period",
          "type": "uint64"
        },
        {
          "indexed": false,
          "internalType": "bool",
          "name": "usesContentManager",
          "type": "bool"
        },
        {
          "indexed": false,
          "internalType": "uint256",
          "name": "deposited",
          "type": "uint256"
        }
      ],
      "name": "RequestMade",
      "type": "event"
    },
    {
      "anonymous": false,
      "inputs": [
        {
          "indexed": true,
          "internalType": "bytes32",
          "name": "requestReference",
          "type": "bytes32"
        }
      ],
      "name": "RequestStopped",
      "type": "event"
    },
    {
      "anonymous": false,
      "inputs": [
        {
          "indexed": true,
          "internalType": "bytes32",
          "name": "requestReference",
          "type": "bytes32"
        },
        {
          "indexed": false,
          "internalType": "uint256",
          "name": "deposited",
          "type": "uint256"
        }
      ],
      "name": "RequestTopUp",
      "type": "event"
    },
    {
      "inputs": [
        {
          "internalType": "uint128",
          "name": "capacity",
          "type": "uint128"
        },
        {
          "internalType": "uint128",
          "name": "maximumDuration",
          "type": "uint128"
        },
        {
          "internalType": "uint64[]",
          "name": "periods",
          "type": "uint64[]"
        },
        {
          "internalType": "uint64[]",
          "name": "pricesForPeriods",
          "type": "uint64[]"
        }
      ],
      "name": "setStorageOffer",
      "outputs": [],
      "stateMutability": "nonpayable",
      "type": "function"
    },
    {
      "inputs": [
        {
          "internalType": "uint128",
          "name": "capacity",
          "type": "uint128"
        }
      ],
      "name": "setStorageCapacity",
      "outputs": [],
      "stateMutability": "nonpayable",
      "type": "function"
    },
    {
      "inputs": [
        {
          "internalType": "uint64[]",
          "name": "periods",
          "type": "uint64[]"
        },
        {
          "internalType": "uint64[]",
          "name": "pricesForPeriods",
          "type": "uint64[]"
        }
      ],
      "name": "setStoragePrice",
      "outputs": [],
      "stateMutability": "nonpayable",
      "type": "function"
    },
    {
      "inputs": [
        {
          "internalType": "uint128",
          "name": "maximumDuration",
          "type": "uint128"
        }
      ],
      "name": "setMaximumDuration",
      "outputs": [],
      "stateMutability": "nonpayable",
      "type": "function"
    },
    {
      "inputs": [
        {
          "internalType": "bytes32[]",
          "name": "fileReference",
          "type": "bytes32[]"
        },
        {
          "internalType": "address payable",
          "name": "provider",
          "type": "address"
        },
        {
          "internalType": "uint120",
          "name": "size",
          "type": "uint120"
        },
        {
          "internalType": "uint64",
          "name": "period",
          "type": "uint64"
        },
        {
          "internalType": "address",
          "name": "contentManager",
          "type": "address"
        }
      ],
      "name": "newRequest",
      "outputs": [],
      "stateMutability": "payable",
      "type": "function",
      "payable": true
    },
    {
      "inputs": [
        {
          "internalType": "bytes32[]",
          "name": "fileReference",
          "type": "bytes32[]"
        },
        {
          "internalType": "address",
          "name": "provider",
          "type": "address"
        },
        {
          "internalType": "bool",
          "name": "fromContentManager",
          "type": "bool"
        }
      ],
      "name": "stopRequestBefore",
      "outputs": [],
      "stateMutability": "nonpayable",
      "type": "function"
    },
    {
      "inputs": [
        {
          "internalType": "bytes32",
          "name": "requestReference",
          "type": "bytes32"
        }
      ],
      "name": "acceptRequest",
      "outputs": [],
      "stateMutability": "nonpayable",
      "type": "function"
    },
    {
      "inputs": [
        {
          "internalType": "bytes32[]",
          "name": "fileReference",
          "type": "bytes32[]"
        },
        {
          "internalType": "address",
          "name": "provider",
          "type": "address"
        },
        {
          "internalType": "bool",
          "name": "fromContentManager",
          "type": "bool"
        }
      ],
      "name": "topUpRequest",
      "outputs": [],
      "stateMutability": "payable",
      "type": "function",
      "payable": true
    },
    {
      "inputs": [
        {
          "internalType": "bytes32[]",
          "name": "fileReference",
          "type": "bytes32[]"
        },
        {
          "internalType": "address",
          "name": "provider",
          "type": "address"
        },
        {
          "internalType": "bool",
          "name": "fromContentManager",
          "type": "bool"
        }
      ],
      "name": "stopRequestDuring",
      "outputs": [],
      "stateMutability": "payable",
      "type": "function",
      "payable": true
    },
    {
      "inputs": [
        {
          "internalType": "bytes32[]",
          "name": "requestReferences",
          "type": "bytes32[]"
        }
      ],
      "name": "withdrawEarnings",
      "outputs": [],
      "stateMutability": "nonpayable",
      "type": "function"
    },
    {
      "inputs": [
        {
          "internalType": "address",
          "name": "bidder",
          "type": "address"
        },
        {
          "internalType": "bytes32[]",
          "name": "fileReference",
          "type": "bytes32[]"
        },
        {
          "internalType": "bool",
          "name": "fromContentManager",
          "type": "bool"
        }
      ],
      "name": "getRequestReference",
      "outputs": [
        {
          "internalType": "bytes32",
          "name": "",
          "type": "bytes32"
        }
      ],
      "stateMutability": "view",
      "type": "function",
      "constant": true
    }
  ],
  "bytecode": "0x608060405234801561001057600080fd5b506130fc806100206000396000f3fe60806040526004361061009c5760003560e01c806399f29a621161006457806399f29a6214610519578063a33849da14610672578063a721cd30146106bf578063a7f1be92146106fa578063ed728a9414610821578063ff922d99146109265761009c565b80630ec94858146100a1578063168ac2be146101855780631d3ab60f146103165780637f04cc9214610363578063817e850f14610428575b600080fd5b610183600480360360608110156100b757600080fd5b81019080803590602001906401000000008111156100d457600080fd5b8201836020820111156100e657600080fd5b8035906020019184602083028401116401000000008311171561010857600080fd5b919080806020026020016040519081016040528093929190818152602001838360200280828437600081840152601f19601f820116905080830192505050505050509192919290803573ffffffffffffffffffffffffffffffffffffffff169060200190929190803515159060200190929190505050610a0a565b005b34801561019157600080fd5b50610314600480360360808110156101a857600080fd5b8101908080356fffffffffffffffffffffffffffffffff16906020019092919080356fffffffffffffffffffffffffffffffff169060200190929190803590602001906401000000008111156101fd57600080fd5b82018360208201111561020f57600080fd5b8035906020019184602083028401116401000000008311171561023157600080fd5b919080806020026020016040519081016040528093929190818152602001838360200280828437600081840152601f19601f8201169050808301925050505050505091929192908035906020019064010000000081111561029157600080fd5b8201836020820111156102a357600080fd5b803590602001918460208302840111640100000000831117156102c557600080fd5b919080806020026020016040519081016040528093929190818152602001838360200280828437600081840152601f19601f820116905080830192505050505050509192919290505050610dd3565b005b34801561032257600080fd5b506103616004803603602081101561033957600080fd5b8101908080356fffffffffffffffffffffffffffffffff169060200190929190505050610e86565b005b34801561036f57600080fd5b506104266004803603602081101561038657600080fd5b81019080803590602001906401000000008111156103a357600080fd5b8201836020820111156103b557600080fd5b803590602001918460208302840111640100000000831117156103d757600080fd5b919080806020026020016040519081016040528093929190818152602001838360200280828437600081840152601f19601f820116905080830192505050505050509192919290505050610ed6565b005b34801561043457600080fd5b506105176004803603606081101561044b57600080fd5b810190808035906020019064010000000081111561046857600080fd5b82018360208201111561047a57600080fd5b8035906020019184602083028401116401000000008311171561049c57600080fd5b919080806020026020016040519081016040528093929190818152602001838360200280828437600081840152601f19601f820116905080830192505050505050509192919290803573ffffffffffffffffffffffffffffffffffffffff16906020019092919080351515906020019092919050505061148a565b005b34801561052557600080fd5b506106706004803603604081101561053c57600080fd5b810190808035906020019064010000000081111561055957600080fd5b82018360208201111561056b57600080fd5b8035906020019184602083028401116401000000008311171561058d57600080fd5b919080806020026020016040519081016040528093929190818152602001838360200280828437600081840152601f19601f820116905080830192505050505050509192919290803590602001906401000000008111156105ed57600080fd5b8201836020820111156105ff57600080fd5b8035906020019184602083028401116401000000008311171561062157600080fd5b919080806020026020016040519081016040528093929190818152602001838360200280828437600081840152601f19601f820116905080830192505050505050509192919290505050611663565b005b34801561067e57600080fd5b506106bd6004803603602081101561069557600080fd5b8101908080356fffffffffffffffffffffffffffffffff169060200190929190505050611700565b005b3480156106cb57600080fd5b506106f8600480360360208110156106e257600080fd5b8101908080359060200190929190505050611750565b005b61081f600480360360a081101561071057600080fd5b810190808035906020019064010000000081111561072d57600080fd5b82018360208201111561073f57600080fd5b8035906020019184602083028401116401000000008311171561076157600080fd5b919080806020026020016040519081016040528093929190818152602001838360200280828437600081840152601f19601f820116905080830192505050505050509192919290803573ffffffffffffffffffffffffffffffffffffffff16906020019092919080356effffffffffffffffffffffffffffff169060200190929190803567ffffffffffffffff169060200190929190803573ffffffffffffffffffffffffffffffffffffffff1690602001909291905050506119bb565b005b34801561082d57600080fd5b506109106004803603606081101561084457600080fd5b81019080803573ffffffffffffffffffffffffffffffffffffffff1690602001909291908035906020019064010000000081111561088157600080fd5b82018360208201111561089357600080fd5b803590602001918460208302840111640100000000831117156108b557600080fd5b919080806020026020016040519081016040528093929190818152602001838360200280828437600081840152601f19601f8201169050808301925050505050505091929192908035151590602001909291905050506122ce565b6040518082815260200191505060405180910390f35b610a086004803603606081101561093c57600080fd5b810190808035906020019064010000000081111561095957600080fd5b82018360208201111561096b57600080fd5b8035906020019184602083028401116401000000008311171561098d57600080fd5b919080806020026020016040519081016040528093929190818152602001838360200280828437600081840152601f19601f820116905080830192505050505050509192919290803573ffffffffffffffffffffffffffffffffffffffff1690602001909291908035151590602001909291905050506123fd565b005b6000610a173385846122ce565b905060008060008573ffffffffffffffffffffffffffffffffffffffff1673ffffffffffffffffffffffffffffffffffffffff16815260200190815260200160002060020160008381526020019081526020016000209050600060018260000160089054906101000a900467ffffffffffffffff1667ffffffffffffffff168360010160109054906101000a90046fffffffffffffffffffffffffffffffff166fffffffffffffffffffffffffffffffff16420381610ad257fe5b040190508160000160109054906101000a900467ffffffffffffffff1667ffffffffffffffff16818360000160189054906101000a900467ffffffffffffffff1667ffffffffffffffff160110610b74576040517f08c379a0000000000000000000000000000000000000000000000000000000008152600401808060200182810382526031815260200180612f6f6031913960400191505060405180910390fd5b60008260000160106101000a81548167ffffffffffffffff021916908367ffffffffffffffff16021790555060008260000160186101000a81548167ffffffffffffffff021916908367ffffffffffffffff1602179055508160010160019054906101000a90046effffffffffffffffffffffffffffff166effffffffffffffffffffffffffffff166000803373ffffffffffffffffffffffffffffffffffffffff1673ffffffffffffffffffffffffffffffffffffffff16815260200190815260200160002060000160009054906101000a90046fffffffffffffffffffffffffffffffff16016000803373ffffffffffffffffffffffffffffffffffffffff1673ffffffffffffffffffffffffffffffffffffffff16815260200190815260200160002060000160006101000a8154816fffffffffffffffffffffffffffffffff02191690836fffffffffffffffffffffffffffffffff16021790555060008260010160106101000a8154816fffffffffffffffffffffffffffffffff02191690836fffffffffffffffffffffffffffffffff1602179055503373ffffffffffffffffffffffffffffffffffffffff166108fc8360000160009054906101000a900467ffffffffffffffff1667ffffffffffffffff1683028460000160109054906101000a900467ffffffffffffffff1667ffffffffffffffff16039081150290604051600060405180830381858888f19350505050158015610d9d573d6000803e3d6000fd5b50827f97e62d4fcb08ba0c94ea45c6647c63c29d23df27d9312702babb8483befcb75760405160405180910390a2505050505050565b60008060003373ffffffffffffffffffffffffffffffffffffffff1673ffffffffffffffffffffffffffffffffffffffff1681526020019081526020016000209050610e1f8186612ae1565b610e298185612b80565b60008090505b83518160ff1611610e7e57610e7182858360ff1681518110610e4d57fe5b6020026020010151858460ff1681518110610e6457fe5b6020026020010151612c31565b8080600101915050610e2f565b505050505050565b60008060003373ffffffffffffffffffffffffffffffffffffffff1673ffffffffffffffffffffffffffffffffffffffff1681526020019081526020016000209050610ed28183612ae1565b5050565b600080600090505b82518160ff161161143e5760008060003373ffffffffffffffffffffffffffffffffffffffff1673ffffffffffffffffffffffffffffffffffffffff1681526020019081526020016000206002016000858460ff1681518110610f3d57fe5b60200260200101518152602001908152602001600020905060008160010160109054906101000a90046fffffffffffffffffffffffffffffffff166fffffffffffffffffffffffffffffffff161415610fe1576040517f08c379a0000000000000000000000000000000000000000000000000000000008152600401808060200182810382526022815260200180612fa06022913960400191505060405180910390fd5b428160000160089054906101000a900467ffffffffffffffff1667ffffffffffffffff168260000160109054906101000a900467ffffffffffffffff1667ffffffffffffffff168360010160109054906101000a90046fffffffffffffffffffffffffffffffff1601026fffffffffffffffffffffffffffffffff1610156112e6576110cc8160000160009054906101000a900467ffffffffffffffff168260000160189054906101000a900467ffffffffffffffff168360000160109054906101000a900467ffffffffffffffff16030267ffffffffffffffff1684612d0490919063ffffffff16565b925060008160000160186101000a81548167ffffffffffffffff021916908367ffffffffffffffff16021790555060008160000160106101000a81548167ffffffffffffffff021916908367ffffffffffffffff16021790555060008060003373ffffffffffffffffffffffffffffffffffffffff1673ffffffffffffffffffffffffffffffffffffffff16815260200190815260200160002060000160009054906101000a90046fffffffffffffffffffffffffffffffff166fffffffffffffffffffffffffffffffff16146112a5578060010160019054906101000a90046effffffffffffffffffffffffffffff166effffffffffffffffffffffffffffff166000803373ffffffffffffffffffffffffffffffffffffffff1673ffffffffffffffffffffffffffffffffffffffff16815260200190815260200160002060000160009054906101000a90046fffffffffffffffffffffffffffffffff16016000803373ffffffffffffffffffffffffffffffffffffffff1673ffffffffffffffffffffffffffffffffffffffff16815260200190815260200160002060000160006101000a8154816fffffffffffffffffffffffffffffffff02191690836fffffffffffffffffffffffffffffffff1602179055505b60008160010160106101000a8154816fffffffffffffffffffffffffffffffff02191690836fffffffffffffffffffffffffffffffff1602179055506113ed565b60008160000160089054906101000a900467ffffffffffffffff1667ffffffffffffffff168260010160109054906101000a90046fffffffffffffffffffffffffffffffff166fffffffffffffffffffffffffffffffff1642038161134757fe5b0490506113a58260000160009054906101000a900467ffffffffffffffff1667ffffffffffffffff168360000160189054906101000a900467ffffffffffffffff1667ffffffffffffffff1683030285612d0490919063ffffffff16565b9350808260000160188282829054906101000a900467ffffffffffffffff160192506101000a81548167ffffffffffffffff021916908367ffffffffffffffff160217905550505b838260ff16815181106113fc57fe5b60200260200101517f4ac42bf24a33f8a33951634c9cdf69b8c8263e3d16bbe8fa48e167692a36712e60405160405180910390a2508080600101915050610ede565b503373ffffffffffffffffffffffffffffffffffffffff166108fc829081150290604051600060405180830381858888f19350505050158015611485573d6000803e3d6000fd5b505050565b60006114973385846122ce565b905060008060008573ffffffffffffffffffffffffffffffffffffffff1673ffffffffffffffffffffffffffffffffffffffff1681526020019081526020016000206002016000838152602001908152602001600020905060008160010160109054906101000a90046fffffffffffffffffffffffffffffffff166fffffffffffffffffffffffffffffffff161461157a576040517f08c379a000000000000000000000000000000000000000000000000000000000815260040180806020018281038252602c815260200180612f1d602c913960400191505060405180910390fd5b60008160000160009054906101000a900467ffffffffffffffff168260000160109054906101000a900467ffffffffffffffff160267ffffffffffffffff16905060008260000160106101000a81548167ffffffffffffffff021916908367ffffffffffffffff1602179055503373ffffffffffffffffffffffffffffffffffffffff166108fc829081150290604051600060405180830381858888f1935050505015801561162d573d6000803e3d6000fd5b50827f97e62d4fcb08ba0c94ea45c6647c63c29d23df27d9312702babb8483befcb75760405160405180910390a2505050505050565b60008060003373ffffffffffffffffffffffffffffffffffffffff1673ffffffffffffffffffffffffffffffffffffffff168152602001908152602001600020905060008090505b83518160ff16116116fa576116ed82858360ff16815181106116c957fe5b6020026020010151858460ff16815181106116e057fe5b6020026020010151612c31565b80806001019150506116ab565b50505050565b60008060003373ffffffffffffffffffffffffffffffffffffffff1673ffffffffffffffffffffffffffffffffffffffff168152602001908152602001600020905061174c8183612b80565b5050565b60008060003373ffffffffffffffffffffffffffffffffffffffff1673ffffffffffffffffffffffffffffffffffffffff1681526020019081526020016000206002016000838152602001908152602001600020905060008160000160109054906101000a900467ffffffffffffffff1667ffffffffffffffff1614156117d657600080fd5b6118258160000160089054906101000a900467ffffffffffffffff168260000160109054906101000a900467ffffffffffffffff160267ffffffffffffffff1642612d0490919063ffffffff16565b50428160010160106101000a8154816fffffffffffffffffffffffffffffffff02191690836fffffffffffffffffffffffffffffffff1602179055506119138160010160019054906101000a90046effffffffffffffffffffffffffffff166effffffffffffffffffffffffffffff166000803373ffffffffffffffffffffffffffffffffffffffff1673ffffffffffffffffffffffffffffffffffffffff16815260200190815260200160002060000160009054906101000a90046fffffffffffffffffffffffffffffffff166fffffffffffffffffffffffffffffffff16612d8c90919063ffffffff16565b6000803373ffffffffffffffffffffffffffffffffffffffff1673ffffffffffffffffffffffffffffffffffffffff16815260200190815260200160002060000160006101000a8154816fffffffffffffffffffffffffffffffff02191690836fffffffffffffffffffffffffffffffff160217905550817fb9f62f3177a4856e14a2ef5a7b002a5962e6c63bb315660ac6af231b05306b3a60405160405180910390a25050565b60008267ffffffffffffffff161415611a1f576040517f08c379a00000000000000000000000000000000000000000000000000000000081526004018080602001828103825260278152602001806130486027913960400191505060405180910390fd5b60008073ffffffffffffffffffffffffffffffffffffffff168273ffffffffffffffffffffffffffffffffffffffff16141590506000611a603388846122ce565b905060008060008873ffffffffffffffffffffffffffffffffffffffff1673ffffffffffffffffffffffffffffffffffffffff16815260200190815260200160002060010160008667ffffffffffffffff1667ffffffffffffffff16815260200190815260200160002060009054906101000a900467ffffffffffffffff16905060008167ffffffffffffffff161415611b45576040517f08c379a0000000000000000000000000000000000000000000000000000000008152600401808060200182810382526030815260200180612fe36030913960400191505060405180910390fd5b60003414158015611b69575060008167ffffffffffffffff163481611b6657fe5b06145b611bbe576040517f08c379a00000000000000000000000000000000000000000000000000000000081526004018080602001828103825260358152602001806130136035913960400191505060405180910390fd5b60008060008973ffffffffffffffffffffffffffffffffffffffff1673ffffffffffffffffffffffffffffffffffffffff1681526020019081526020016000209050600081600201600085815260200190815260200160002090506000428260000160089054906101000a900467ffffffffffffffff1667ffffffffffffffff168360000160109054906101000a900467ffffffffffffffff1667ffffffffffffffff168460010160109054906101000a90046fffffffffffffffffffffffffffffffff1601026fffffffffffffffffffffffffffffffff1610905060008260010160109054906101000a90046fffffffffffffffffffffffffffffffff166fffffffffffffffffffffffffffffffff161480611cd85750805b611d2d576040517f08c379a0000000000000000000000000000000000000000000000000000000008152600401808060200182810382526026815260200180612f496026913960400191505060405180910390fd5b8015611fdf5760008360000160009054906101000a90046fffffffffffffffffffffffffffffffff166fffffffffffffffffffffffffffffffff161415611dbf576040517f08c379a000000000000000000000000000000000000000000000000000000000815260040180806020018281038252602d81526020018061306f602d913960400191505060405180910390fd5b6000611e328360000160009054906101000a900467ffffffffffffffff1667ffffffffffffffff168460000160189054906101000a900467ffffffffffffffff168560000160109054906101000a900467ffffffffffffffff160367ffffffffffffffff16612dd690919063ffffffff16565b905060008360000160186101000a81548167ffffffffffffffff021916908367ffffffffffffffff16021790555060008360010160106101000a8154816fffffffffffffffffffffffffffffffff02191690836fffffffffffffffffffffffffffffffff1602179055508260010160019054906101000a90046effffffffffffffffffffffffffffff166effffffffffffffffffffffffffffff166000803373ffffffffffffffffffffffffffffffffffffffff1673ffffffffffffffffffffffffffffffffffffffff16815260200190815260200160002060000160008282829054906101000a90046fffffffffffffffffffffffffffffffff160192506101000a8154816fffffffffffffffffffffffffffffffff02191690836fffffffffffffffffffffffffffffffff1602179055508a73ffffffffffffffffffffffffffffffffffffffff166108fc829081150290604051600060405180830381858888f19350505050158015611fab573d6000803e3d6000fd5b50857f4ac42bf24a33f8a33951634c9cdf69b8c8263e3d16bbe8fa48e167692a36712e60405160405180910390a250612019565b888260010160016101000a8154816effffffffffffffffffffffffffffff02191690836effffffffffffffffffffffffffffff1602179055505b60008467ffffffffffffffff16348161202e57fe5b0490508360000160109054906101000a90046fffffffffffffffffffffffffffffffff166fffffffffffffffffffffffffffffffff166120818a67ffffffffffffffff1683612dd690919063ffffffff16565b11158015612099575067ffffffffffffffff80168111155b61210b576040517f08c379a000000000000000000000000000000000000000000000000000000000815260040180806020018281038252601f8152602001807f50696e6e696e674d616e616765723a20706572696f6420746f6f206c6f6e670081525060200191505060405180910390fd5b6121288567ffffffffffffffff1682612dd690919063ffffffff16565b50848360000160006101000a81548167ffffffffffffffff021916908367ffffffffffffffff160217905550888360000160086101000a81548167ffffffffffffffff021916908367ffffffffffffffff160217905550808360000160106101000a81548167ffffffffffffffff021916908367ffffffffffffffff160217905550868360010160006101000a81548160ff0219169083151502179055508a73ffffffffffffffffffffffffffffffffffffffff163373ffffffffffffffffffffffffffffffffffffffff168d60405180828051906020019060200280838360005b8381101561222557808201518184015260208101905061220a565b5050505090500191505060405180910390207f53a03ac479dbe8ba6af0585bc503b8e2a6eaadfe44e35eefc45eb336a37614348d8d8c3460405180856effffffffffffffffffffffffffffff166effffffffffffffffffffffffffffff1681526020018467ffffffffffffffff1667ffffffffffffffff1681526020018315151515815260200182815260200194505050505060405180910390a4505050505050505050505050565b60008115612368573383604051602001808373ffffffffffffffffffffffffffffffffffffffff1673ffffffffffffffffffffffffffffffffffffffff1660601b8152601401828051906020019060200280838360005b83811015612340578082015181840152602081019050612325565b50505050905001925050506040516020818303038152906040528051906020012090506123f6565b8383604051602001808373ffffffffffffffffffffffffffffffffffffffff1673ffffffffffffffffffffffffffffffffffffffff1660601b8152601401828051906020019060200280838360005b838110156123d25780820151818401526020810190506123b7565b50505050905001925050506040516020818303038152906040528051906020012090505b9392505050565b600061240a3385846122ce565b905060008060008573ffffffffffffffffffffffffffffffffffffffff1673ffffffffffffffffffffffffffffffffffffffff16815260200190815260200160002090506000816002016000848152602001908152602001600020905060008260000160009054906101000a90046fffffffffffffffffffffffffffffffff166fffffffffffffffffffffffffffffffff1614156124f3576040517f08c379a000000000000000000000000000000000000000000000000000000000815260040180806020018281038252602d81526020018061306f602d913960400191505060405180910390fd5b60008160010160109054906101000a90046fffffffffffffffffffffffffffffffff166fffffffffffffffffffffffffffffffff16141561257f576040517f08c379a0000000000000000000000000000000000000000000000000000000008152600401808060200182810382526022815260200180612fa06022913960400191505060405180910390fd5b60008260010160008360000160089054906101000a900467ffffffffffffffff1667ffffffffffffffff1667ffffffffffffffff16815260200190815260200160002060009054906101000a900467ffffffffffffffff1667ffffffffffffffff161415612638576040517f08c379a000000000000000000000000000000000000000000000000000000000815260040180806020018281038252602b81526020018061309c602b913960400191505060405180910390fd5b60003414158015612674575060008160000160009054906101000a900467ffffffffffffffff1667ffffffffffffffff16348161267157fe5b06145b6126c9576040517f08c379a00000000000000000000000000000000000000000000000000000000081526004018080602001828103825260358152602001806130136035913960400191505060405180910390fd5b428160000160089054906101000a900467ffffffffffffffff1667ffffffffffffffff168260000160109054906101000a900467ffffffffffffffff1667ffffffffffffffff168360010160109054906101000a90046fffffffffffffffffffffffffffffffff1601026fffffffffffffffffffffffffffffffff1611156127b9576040517f08c379a000000000000000000000000000000000000000000000000000000000815260040180806020018281038252601f8152602001807f50696e6e696e674d616e616765723a205265717565737420657870697265640081525060200191505060405180910390fd5b60008160000160009054906101000a900467ffffffffffffffff1667ffffffffffffffff1634816127e657fe5b0490508260000160109054906101000a90046fffffffffffffffffffffffffffffffff166fffffffffffffffffffffffffffffffff166128e68360000160089054906101000a900467ffffffffffffffff1667ffffffffffffffff16612877848660000160089054906101000a900467ffffffffffffffff1667ffffffffffffffff16612d0490919063ffffffff16565b8560010160109054906101000a90046fffffffffffffffffffffffffffffffff166fffffffffffffffffffffffffffffffff164203816128b357fe5b048560000160109054906101000a900467ffffffffffffffff1667ffffffffffffffff1603612dd690919063ffffffff16565b11158015612932575067ffffffffffffffff801661292f8360000160109054906101000a900467ffffffffffffffff1667ffffffffffffffff1683612d0490919063ffffffff16565b11155b6129a4576040517f08c379a000000000000000000000000000000000000000000000000000000000815260040180806020018281038252601f8152602001807f50696e6e696e674d616e616765723a20706572696f6420746f6f206c6f6e670081525060200191505060405180910390fd5b6129d98260000160009054906101000a900467ffffffffffffffff1667ffffffffffffffff1682612dd690919063ffffffff16565b50808260000160108282829054906101000a900467ffffffffffffffff160192506101000a81548167ffffffffffffffff021916908367ffffffffffffffff160217905550612a9f8260000160089054906101000a900467ffffffffffffffff168360000160109054906101000a900467ffffffffffffffff160267ffffffffffffffff168360010160109054906101000a90046fffffffffffffffffffffffffffffffff166fffffffffffffffffffffffffffffffff16612d0490919063ffffffff16565b50837fc0161a1b9ca96ed7eebb63025f4fa75d13deca2932c2cfb35595e474b6b18d4e346040518082815260200191505060405180910390a250505050505050565b808260000160006101000a8154816fffffffffffffffffffffffffffffffff02191690836fffffffffffffffffffffffffffffffff1602179055503373ffffffffffffffffffffffffffffffffffffffff167f7bfbae5d5b357fcec02adf43e889373c5d7f0291b85187a4d26fb7888691d9018260405180826fffffffffffffffffffffffffffffffff16815260200191505060405180910390a25050565b808260000160106101000a8154816fffffffffffffffffffffffffffffffff02191690836fffffffffffffffffffffffffffffffff1602179055503373ffffffffffffffffffffffffffffffffffffffff167f1486a90930ecb3ccbbec298f0658ae6e63b7397b08b38db43a2c6c578df637488260405180826fffffffffffffffffffffffffffffffff166fffffffffffffffffffffffffffffffff16815260200191505060405180910390a25050565b808360010160008467ffffffffffffffff1667ffffffffffffffff16815260200190815260200160002060006101000a81548167ffffffffffffffff021916908367ffffffffffffffff1602179055503373ffffffffffffffffffffffffffffffffffffffff167f434c028bed44a6c26128b453b3343eab17a8278f8abb9b0e1e77505867eae36c8383604051808367ffffffffffffffff1667ffffffffffffffff1681526020018267ffffffffffffffff1667ffffffffffffffff1681526020019250505060405180910390a2505050565b600080828401905083811015612d82576040517f08c379a000000000000000000000000000000000000000000000000000000000815260040180806020018281038252601b8152602001807f536166654d6174683a206164646974696f6e206f766572666c6f77000000000081525060200191505060405180910390fd5b8091505092915050565b6000612dce83836040518060400160405280601e81526020017f536166654d6174683a207375627472616374696f6e206f766572666c6f770000815250612e5c565b905092915050565b600080831415612de95760009050612e56565b6000828402905082848281612dfa57fe5b0414612e51576040517f08c379a0000000000000000000000000000000000000000000000000000000008152600401808060200182810382526021815260200180612fc26021913960400191505060405180910390fd5b809150505b92915050565b6000838311158290612f09576040517f08c379a00000000000000000000000000000000000000000000000000000000081526004018080602001828103825283818151815260200191508051906020019080838360005b83811015612ece578082015181840152602081019050612eb3565b50505050905090810190601f168015612efb5780820380516001836020036101000a031916815260200191505b509250505060405180910390fd5b506000838503905080915050939250505056fe50696e6e696e674d616e616765723a20726571756573742077617320616c726561647920616363657074656450696e6e696e674d616e616765723a205265717565737420616c72656164792061637469766550696e6e696e674d616e616765723a20726571756573742065787069726564206f7220696e206c61737420706572696f6450696e6e696e674d616e616765723a2052657175657374206e6f7420616374697665536166654d6174683a206d756c7469706c69636174696f6e206f766572666c6f7750696e6e696e674d616e616765723a20707269636520646f65736e277420657869737420666f722070726f766964657250696e6e696e674d616e616765723a2076616c75652073656e74206e6f7420636f72726573706f6e64696e6720746f20707269636550696e6e696e674d616e616765723a20706572696f64206f662030206e6f7420616c6c6f77656450696e6e696e674d616e616765723a2070726f766964657220646973636f6e74696e756564207365727669636550696e6e696e674d616e616765723a207072696365206e6f7420617661696c61626c6520616e796d6f7265a2646970667358221220df0b586904cba95b42c11a5a3ebb67fca213bf7bc807467876776bd05982667a64736f6c63430006010033",
  "source": "pragma solidity ^0.6.1;\n\nimport \"./vendor/SafeMath.sol\";\n\n/// @title PinningManager\n/// @author Rinke Hendriksen <rinke@iovlabs.org>\n/// @notice Storage providers can offer their storage space and list their price and clients can take these offers\ncontract PinningManager {\n\n    //**TODO: verify that all safeMath operations don't cause a deadlock in the contract\n    //**TODO: re-verify all math operations\n    //TODO adjust event with isContentManager\n    using SafeMath for uint256;\n    using SafeMath for uint128;\n    using SafeMath for uint64;\n    uint64 constant MAX_UINT64 = 18446744073709551615;\n\n    /*\n    StorageOffer represents:\n     - capacity: the amount of bytes offered. When capacity is zero, already started Requests can't be prolonged or re-started\n     - maximumDuration: the maximum time (in seconds) for which a customer can prepay.\n     - prices: maps a period to a price\n     - RequestRegistry: the proposed and accepted Requests\n    */\n    struct StorageOffer {\n        uint128 capacity;\n        uint128 maximumDuration;\n        mapping(uint64 => uint64) prices;\n        mapping(bytes32 => Request) RequestRegistry; // link to pinning requests that are accepted under this offer\n    }\n\n    /*\n    Request represents:\n     - chosenPrice: Every duration seconds a amount of x is applied. The contract can be cancelled by the proposer every duration seconds since the start.\n     - size: size of the file (in bytes, rounded up)\n     - startDate: when the Request was accepted\n     - numberOfPeriodsDeposited: number of periods (chosenPrice.duration seconds) that is deposited in the contracts.\n       At startDate * numberOfPeriodsDeposited seconds the Request expires unless topped up in the meantime\n     - numberOfPeriodsWithdrawn how many periods are withdrawn from the numberOfPeriodsDeposited. Provider can withdraw every period seconds since the start\n     - usesContentManager: t.b.d.\n     - startDate: when request was accepted\n    */\n    struct Request {\n        uint64 chosenPrice;\n        uint64 chosenPeriod;\n        uint64 numberOfPeriodsDeposited;\n        uint64 numberOfPeriodsWithdrawn;\n        bool usesContentManager;\n        uint120 size;\n        uint128 startDate;\n    }\n\n    // offerRegistry stores the open or closed StorageOffers per provider.\n    mapping(address => StorageOffer) offerRegistry;\n\n    event CapacitySet(address indexed storer, uint256 capacity);\n    event MaximumDurationSet(address indexed storer, uint128 maximumDuration);\n    event PriceSet(address indexed storer, uint64 period, uint64 price);\n\n    event RequestMade(\n        bytes32[] indexed fileReference,\n        address indexed requester,\n        address indexed provider,\n        uint120 size,\n        uint64 period,\n        bool usesContentManager,\n        uint256 deposited\n    );\n    event RequestTopUp(bytes32 indexed requestReference, uint256 deposited);\n    event RequestAccepted(bytes32 indexed requestReference);\n    event RequestStopped(bytes32 indexed requestReference);\n\n    event EarningsWithdrawn(bytes32 indexed requestReference);\n\n    /**\n    @notice set the capacity, maximumDuration and price of a StorageOffer.\n    @dev\n    - Use this function when initiating a storage offer or when the users wants to change more than one parameter at once. TODO: gas price comparison.\n    maximumDuration must be smaller or equal to the longest period (NOT verified by smart-contract).\n    - Exercise caution with assigning additional capacity when capacity is already taken.\n        It may happen that when a lot of capcity is available and we release already-taken capacity, capacity overflows.\n        We explicitely allow this overflow to happen on the smart-contract level,\n        because the worst thing that can happen is that the provider now has less storage available than planned (in which case he can top it up himself).\n        However, take care of this in the client. REF_CAPACITY\n    - maximumDuration must be smaller or equal to the longest period (NOT verified by smart-contract).\n    - make sure that any period * prices does not cause an overflow, as this can never be accepted (REF_MAX_PRICE) and hence is pointless\n    @param capacity the amount of bytes offered.\n    If already active before and set to 0, existing contracts can't be prolonged / re-started, no new contracts can be started.\n    @param maximumDuration the maximum time (in seconds) for which a proposer can prepay. Prepaid bids can't be cancelled REF1.\n    @param periods the offered periods. Length must be equal to pricesForPeriods.\n    @param pricesForPeriods the prices for the offered periods. Each entry at index corresponds to the same index at periods.\n    */\n    function setStorageOffer(uint128 capacity, uint128 maximumDuration, uint64[] memory periods, uint64[] memory pricesForPeriods) public {\n        StorageOffer storage offer = offerRegistry[msg.sender];\n        _setCapacity(offer, capacity);\n        _setMaximumDuration(offer, maximumDuration);\n        for(uint8 i = 0; i <= periods.length; i++) {\n            _setStoragePrice(offer, periods[i], pricesForPeriods[i]);\n        }\n    }\n\n    /**\n    @notice set the capacity of a StorageOffer.\n    If already active before and set to 0, existing contracts can't be prolonged / re-started, no new contracts can be started.\n    @dev exercise caution with assigning additional capacity when capacity is already taken.\n    It may happen that when a lot of capcity is available and we release already-taken capacity, capacity overflows.\n    We explicitely allow this overflow to happen on the smart-contract level,\n    because the worst thing that can happen is that the provider now has less storage available than planned (in which case he can top it up himself).\n    However, take care of this in the client. REF_CAPACITY\n    @param capacity the amount of bytes offered.\n    */\n    function setStorageCapacity(uint128 capacity) public {\n        StorageOffer storage offer = offerRegistry[msg.sender];\n        _setCapacity(offer, capacity);\n    }\n\n    /**\n    @notice set the price for a StorageOffer.\n    @dev \n    - make sure that any period * prices does not cause an overflow, as this can never be accepted (REF_MAX_PRICE) and hence is pointless\n    - maximumDuration must be smaller or equal to the longest period (NOT verified by smart-contract).\n    @param periods the offered periods. Length must be equal to pricesForPeriods.\n    @param pricesForPeriods the prices for the offered periods. Each entry at index corresponds to the same index at periods.\n    */\n    function setStoragePrice(uint64[] memory periods, uint64[] memory pricesForPeriods) public {\n        StorageOffer storage offer = offerRegistry[msg.sender];\n        for(uint8 i = 0; i <= periods.length; i++) {\n            _setStoragePrice(offer, periods[i], pricesForPeriods[i]);\n        }\n    }\n\n    /**\n    @notice set the maximumDuration for a StorageOffer.\n    @dev \n    - maximumDuration must be smaller or equal to the longest period (NOT verified by smart-contract).\n    - make sure that any period is never more than a maximumDuration as this can never be accepted and hence is pointless\n\n    @param maximumDuration the maximum time (in seconds) for which a proposer can prepay. Prepaid bids can't be cancelled REF1.\n    */\n    function setMaximumDuration(uint128 maximumDuration) public {\n        StorageOffer storage offer = offerRegistry[msg.sender];\n        _setMaximumDuration(offer, maximumDuration);\n    }\n\n\n    /**\n    @notice request to fill a storageOffer. After requesting, an offer must be accepted by provider to become active.\n    @dev if Request was active before, is expired and final payout is not yet done, final payout can be triggered by proposer here.\n    The to-be-pinned file's size in bytes (rounded up) must be equal in size to param size.\n    @param fileReference the reference to the to-be-pinned file (when contentManager is not used)\n    When called by a ContentManager is used, this fileReference can be a nonce (such that a contentManager smart-contract can be used to request pinning for multiple files)\n    @param provider the provider from which is proposed to take a StorageOffer.\n    @param size the size of the to-be-pinned file in bytes (rounded up).\n    @param period the chosen period (seconds after which a Request can be cancelled and left-over money refunded).\n    @param contentManager if not equal to 0 address, we use this address to manage content and funds. WARNING: contentManager MUST adhere to the contentManager ABI.\n    */\n    function newRequest(bytes32[] memory fileReference, address payable provider, uint120 size, uint64 period, address contentManager) public payable {\n        require(period != 0, \"PinningManager: period of 0 not allowed\");\n        bool usesContentManager = contentManager != address(0);\n        bytes32 requestReference = getRequestReference(msg.sender, fileReference, usesContentManager);\n        uint64 chosenPrice = offerRegistry[provider].prices[period];\n        require(chosenPrice != 0, \"PinningManager: price doesn't exist for provider\");\n        require(msg.value != 0 && msg.value % chosenPrice == 0, \"PinningManager: value sent not corresponding to price\");\n        StorageOffer storage offer = offerRegistry[provider];\n        Request storage request = offer.RequestRegistry[requestReference];\n        // NO_OVERFLOW reasoning. See: REF_DURATION\n        bool isPastCurrentEndTime = (request.startDate + request.numberOfPeriodsDeposited) * request.chosenPeriod < now;\n        require(\n            request.startDate == 0 ||\n            isPastCurrentEndTime,\n            \"PinningManager: Request already active\"\n        );\n        if(isPastCurrentEndTime) {\n            require(offer.capacity != 0, \"PinningManager: provider discontinued service\");\n            //NO_OVERFLOW reasoning: numberOfPeriodsDeposited always bigger or equal to numberOfPeriodsWithdrawn\n            uint256 toTransfer = (request.numberOfPeriodsDeposited - request.numberOfPeriodsWithdrawn).mul(request.chosenPrice);\n            request.numberOfPeriodsWithdrawn = 0;\n            request.startDate = 0;\n            /*\n            ALLOWING_OVERFLOW reasoning: the worst that can happen is that the provider has less storage on offer than planned.\n            Verifying during all contract calls for no overflow is too costly to prevent such a small damage.\n            Damage can be easily re-done by calling setStorageCapacity. REF_CAPACITY\n            */\n            offerRegistry[msg.sender].capacity += request.size;\n            provider.transfer(toTransfer); //TODO: transfer is not best practice: https://diligence.consensys.net/blog/2019/09/stop-using-soliditys-transfer-now/\n            emit EarningsWithdrawn(requestReference);\n        } else {\n            request.size = size;\n        }\n        //NO_OVERFLOW reasoning: chosenPrice is verified to not be zero in this function call\n        uint256 numberOfPeriodsDeposited = msg.value / chosenPrice;\n        require(\n            numberOfPeriodsDeposited.mul(period) <= offer.maximumDuration &&\n            numberOfPeriodsDeposited <= MAX_UINT64,\n            \"PinningManager: period too long\"\n        );\n        numberOfPeriodsDeposited.mul(chosenPrice); // overFlow check. If this doesn't pass, we might have issues transfering the maximum amount REF_MAX_TRANSFER\n        request.chosenPrice = chosenPrice;\n        request.chosenPeriod = period;\n        request.numberOfPeriodsDeposited = uint64(numberOfPeriodsDeposited);\n        request.usesContentManager = usesContentManager;\n        emit RequestMade(\n            fileReference,\n            msg.sender,\n            provider,\n            size,\n            period,\n            usesContentManager,\n            msg.value\n        );\n    }\n\n    /**\n    @notice stops a Request before it is accepted and transfers all money paid in.\n    @param fileReference the reference to the to-be-pinned file (when contentManager is not used)\n    When called by a ContentManager is used, this fileReference can be a nonce (such that a contentManager smart-contract can be used to request pinning for multiple files)\n    @param provider the provider from which is proposed to take a StorageOffer.\n    @param fromContentManager set to true if the caller is a contentManager\n    */\n    function stopRequestBefore(bytes32[] memory fileReference, address provider, bool fromContentManager) public {\n        bytes32 requestReference = getRequestReference(msg.sender, fileReference, fromContentManager);\n        Request storage request = offerRegistry[provider].RequestRegistry[requestReference];\n        require(request.startDate == 0, \"PinningManager: request was already accepted\");\n        //NO_OVERFLOW reasoning: we already verified: REF_MAX_TRANSFER\n        uint256 toTransfer = request.numberOfPeriodsDeposited * request.chosenPrice;\n        request.numberOfPeriodsDeposited = 0;\n        msg.sender.transfer(toTransfer);\n        emit RequestStopped(requestReference);\n    }\n\n    /**\n    @notice accepts a request. From now on, the provider is responsible for pinning the file\n    @param requestReference the keccak256 hash of the bidder and the fileReference or the address of the contentManager (see: getRequestReference)\n    */\n    function acceptRequest(bytes32 requestReference) public {\n        Request storage request = offerRegistry[msg.sender].RequestRegistry[requestReference];\n        require(request.numberOfPeriodsDeposited != 0);\n        //NO_OVERFLOW reasoning: verified in function newRequest\n        //NO_DEADLOCK reasoning: if this reverts, we can just not accept the request, and the requester can get his money via stopRequestBefore\n        now.add(request.numberOfPeriodsDeposited * request.chosenPeriod); // overFlow check. If this doesn't pass, the duration of the offer overflows MAX_UINT64 and the contract may deadlock. REF_DURATION\n        request.startDate = uint128(now);\n        //TODO: strange behavior below. Why do we need to cast to uint128. If not, compiler complains\n        offerRegistry[msg.sender].capacity = uint128(offerRegistry[msg.sender].capacity.sub(request.size));\n        emit RequestAccepted(requestReference);\n    }\n\n    /**\n    @notice extend the duration of the request.\n    @dev any safeMath operations in this function don't cause a deadlock, as a possible revert just means we can't prolong the request for the desired duration\\\n    @param fileReference the reference to the to-be-pinned file (when contentManager is not used)\n    When called by a ContentManager is used, this fileReference can be a nonce (such that a contentManager smart-contract can be used to request pinning for multiple files)\n    @param provider the address of the provider of the StorageOffer.\n    @param fromContentManager set to true if the caller is a contentManager.\n    */\n    function topUpRequest(bytes32[] memory fileReference, address provider, bool fromContentManager) public payable {\n        bytes32 requestReference = getRequestReference(msg.sender, fileReference, fromContentManager);\n        StorageOffer storage offer = offerRegistry[provider];\n        Request storage request = offer.RequestRegistry[requestReference];\n        require(offer.capacity != 0, \"PinningManager: provider discontinued service\");\n        require(request.startDate != 0, \"PinningManager: Request not active\");\n        require(offer.prices[request.chosenPeriod] != 0, \"PinningManager: price not available anymore\");\n        require(msg.value != 0 && msg.value % request.chosenPrice == 0, \"PinningManager: value sent not corresponding to price\");\n        //NO_OVERFLOW reasoning: see REF_DURATION\n        require((request.startDate + request.numberOfPeriodsDeposited) * request.chosenPeriod <= now, \"PinningManager: Request expired\");\n        //NO_OVERFLOW reasoning: chosenPrice is verified to not be zero in function call: newRequest\n        uint256 numberOfPeriodsDeposited = msg.value / request.chosenPrice;\n        require(\n            (\n                //NO_OVERFLOW reasoning: chosenPeriod can't be zero, startDate always less or equal than now, periodsPast since startDate always less than periodsDeposited (as request is not epired, see line 242)\n                request.numberOfPeriodsDeposited - (now - request.startDate) / request.chosenPeriod // the amount of periods deposited MINUS periods past since the start date (= periods left)\n                .add(numberOfPeriodsDeposited)\n            ).mul(request.chosenPeriod) <= offer.maximumDuration &&\n            numberOfPeriodsDeposited.add(request.numberOfPeriodsDeposited) <= MAX_UINT64,\n            \"PinningManager: period too long\");\n        numberOfPeriodsDeposited.mul(request.chosenPrice); // overFlow check. If this doesn't pass, we might have issues transfering the maximum amount REF_MAX_TRANSFER\n        // NO_OVERFLOW reasoning: verified in line above\n        request.numberOfPeriodsDeposited += uint64(numberOfPeriodsDeposited);\n        //NO_OVERFLOW reasoning: verified in function newRequest\n        request.startDate.add(request.numberOfPeriodsDeposited * request.chosenPeriod); // overFlow check. If this doesn't pass, the duration of the offer overflows MAX_UINT64 and the contract may deadlock. REF_DURATION\n        emit RequestTopUp(requestReference, msg.value);\n    }\n\n    /**\n    @notice stops an active request.\n    @param fileReference the reference to the to-be-pinned file (when contentManager is not used)\n    When called by a ContentManager is used, this fileReference can be a nonce (such that a contentManager smart-contract can be used to request pinning for multiple files)\n    @param provider the address of the provider of the StorageOffer.\n    @param fromContentManager set to true if the caller is a contentManager.\n    */\n    function stopRequestDuring(bytes32[] memory fileReference, address provider, bool fromContentManager) public payable {\n        bytes32 requestReference = getRequestReference(msg.sender, fileReference, fromContentManager);\n        Request storage request = offerRegistry[provider].RequestRegistry[requestReference];\n        // NO_OVERFLOW reasoning: startDate is always less than now. request.chosenPeriod is verified not to be 0 in function: newRequest\n        uint256 periodsPast = ((now - request.startDate) / request.chosenPeriod) + 1;\n        require(request.numberOfPeriodsWithdrawn + periodsPast < request.numberOfPeriodsDeposited, \"PinningManager: request expired or in last period\");\n        request.numberOfPeriodsDeposited = 0;\n        request.numberOfPeriodsWithdrawn = 0;\n        //NO_OVERFLOW reasoning: REF_CAPACITY\n        offerRegistry[msg.sender].capacity = offerRegistry[msg.sender].capacity + request.size;\n        request.startDate = 0;\n        //NO_OVERFLOW reasoning:  verified in \"request expired\" require and see REF_MAX_TRANSFER\n        msg.sender.transfer(request.numberOfPeriodsDeposited - periodsPast * request.chosenPrice);\n        emit RequestStopped(requestReference);\n    }\n\n    /**\n    @notice withdraws the to-withdraw balance of one or more Requests\n    @dev any safeMath operations in this function don't cause a deadlock, as a possible revert just means we have to add less requestReferences\n    @param requestReferences reference to one or more Requests\n    */\n    function withdrawEarnings(bytes32[] memory requestReferences) public {\n        uint256 toTransfer;\n        for(uint8 i = 0; i <= requestReferences.length; i++) {\n            Request storage request = offerRegistry[msg.sender].RequestRegistry[requestReferences[i]];\n            require(request.startDate != 0, \"PinningManager: Request not active\");\n            // check if request is expired\n            //NO_OVERFLOW REASONING: see REF_DURATION\n            if((request.startDate + request.numberOfPeriodsDeposited) * request.chosenPeriod < now) {\n                //NO_OVERFLOW reasoning: numberOfPeriodsWithdrawn is always less than or equal to numberOfPeriodsDeposited and REF_MAX_TRANSFER\n                toTransfer = toTransfer.add((request.numberOfPeriodsDeposited - request.numberOfPeriodsWithdrawn) * request.chosenPrice);\n                request.numberOfPeriodsWithdrawn = 0;\n                request.numberOfPeriodsDeposited = 0;\n                if(offerRegistry[msg.sender].capacity != 0) {\n                    //ALLOW_OVERFLOW reasoning: see: REF_CAPACITY\n                    offerRegistry[msg.sender].capacity = offerRegistry[msg.sender].capacity + request.size;\n                }\n                request.startDate = 0;\n            } else {\n                // NO_OVERFLOW reasoning: startDate is always less than now. request.chosenPeriod is verified not to be 0 in function: newRequest\n                uint256 periodsPast = (now - request.startDate) /  request.chosenPeriod;\n                ////NO_OVERFLOW reasoning: numberOfPeriodsWithdrawn is always less than or equal to periodsPast and REF_MAX_TRANSFER\n                toTransfer = toTransfer.add((periodsPast - request.numberOfPeriodsWithdrawn) * request.chosenPrice);\n                //SAFE_CAST & NO_OVERFLOW reasoning: periodsPast is always less than numberOfPeriodsDeposited (as request is not expired), and numberOfPeriodsDeposited is uint64\n                request.numberOfPeriodsWithdrawn += uint64(periodsPast);\n            }\n            emit EarningsWithdrawn(requestReferences[i]);\n        }\n        msg.sender.transfer(toTransfer);\n    }\n\n    function _setCapacity(StorageOffer storage offer, uint128 capacity) internal {\n        offer.capacity = capacity;\n        emit CapacitySet(msg.sender, capacity);\n    }\n\n    function _setMaximumDuration(StorageOffer storage offer, uint128 maximumDuration) internal {\n        offer.maximumDuration = maximumDuration;\n        emit MaximumDurationSet(msg.sender, maximumDuration);\n     }\n\n    function _setStoragePrice(StorageOffer storage offer, uint64 period, uint64 price) internal {\n        offer.prices[period] = price;\n        emit PriceSet(msg.sender, period, price);\n    }\n    \n    function getRequestReference(address bidder, bytes32[] memory fileReference, bool fromContentManager) public view returns(bytes32) {\n        if(fromContentManager) {\n            return keccak256(abi.encodePacked(msg.sender, fileReference));\n        } else {\n            return keccak256(abi.encodePacked(bidder, fileReference));\n        }\n    }\n}",
  "sourcePath": "/Users/adam/Projects/iovlabs/rds-contracts/contracts/PinningManager.sol",
  "compiler": {
    "name": "solc",
    "version": "0.6.1+commit.e6f7d5a4.Emscripten.clang"
  },
  "schemaVersion": "3.0.21",
  "updatedAt": "2020-01-27T14:45:22.691Z",
  "networkType": "ethereum",
  "devdoc": {
    "author": "Rinke Hendriksen <rinke@iovlabs.org>",
    "methods": {
      "acceptRequest(bytes32)": {
        "params": {
          "requestReference": "the keccak256 hash of the bidder and the fileReference or the address of the contentManager (see: getRequestReference)"
        }
      },
      "newRequest(bytes32[],address,uint120,uint64,address)": {
        "details": "if Request was active before, is expired and final payout is not yet done, final payout can be triggered by proposer here. The to-be-pinned file's size in bytes (rounded up) must be equal in size to param size.",
        "params": {
          "contentManager": "if not equal to 0 address, we use this address to manage content and funds. WARNING: contentManager MUST adhere to the contentManager ABI.",
          "fileReference": "the reference to the to-be-pinned file (when contentManager is not used) When called by a ContentManager is used, this fileReference can be a nonce (such that a contentManager smart-contract can be used to request pinning for multiple files)",
          "period": "the chosen period (seconds after which a Request can be cancelled and left-over money refunded).",
          "provider": "the provider from which is proposed to take a StorageOffer.",
          "size": "the size of the to-be-pinned file in bytes (rounded up)."
        }
      },
      "setMaximumDuration(uint128)": {
        "details": " - maximumDuration must be smaller or equal to the longest period (NOT verified by smart-contract). - make sure that any period is never more than a maximumDuration as this can never be accepted and hence is pointless",
        "params": {
          "maximumDuration": "the maximum time (in seconds) for which a proposer can prepay. Prepaid bids can't be cancelled REF1."
        }
      },
      "setStorageCapacity(uint128)": {
        "details": "exercise caution with assigning additional capacity when capacity is already taken. It may happen that when a lot of capcity is available and we release already-taken capacity, capacity overflows. We explicitely allow this overflow to happen on the smart-contract level, because the worst thing that can happen is that the provider now has less storage available than planned (in which case he can top it up himself). However, take care of this in the client. REF_CAPACITY",
        "params": {
          "capacity": "the amount of bytes offered."
        }
      },
      "setStorageOffer(uint128,uint128,uint64[],uint64[])": {
        "details": "- Use this function when initiating a storage offer or when the users wants to change more than one parameter at once. TODO: gas price comparison. maximumDuration must be smaller or equal to the longest period (NOT verified by smart-contract). - Exercise caution with assigning additional capacity when capacity is already taken. It may happen that when a lot of capcity is available and we release already-taken capacity, capacity overflows. We explicitely allow this overflow to happen on the smart-contract level, because the worst thing that can happen is that the provider now has less storage available than planned (in which case he can top it up himself). However, take care of this in the client. REF_CAPACITY - maximumDuration must be smaller or equal to the longest period (NOT verified by smart-contract). - make sure that any period * prices does not cause an overflow, as this can never be accepted (REF_MAX_PRICE) and hence is pointless",
        "params": {
          "capacity": "the amount of bytes offered. If already active before and set to 0, existing contracts can't be prolonged / re-started, no new contracts can be started.",
          "maximumDuration": "the maximum time (in seconds) for which a proposer can prepay. Prepaid bids can't be cancelled REF1.",
          "periods": "the offered periods. Length must be equal to pricesForPeriods.",
          "pricesForPeriods": "the prices for the offered periods. Each entry at index corresponds to the same index at periods."
        }
      },
      "setStoragePrice(uint64[],uint64[])": {
        "details": " - make sure that any period * prices does not cause an overflow, as this can never be accepted (REF_MAX_PRICE) and hence is pointless - maximumDuration must be smaller or equal to the longest period (NOT verified by smart-contract).",
        "params": {
          "periods": "the offered periods. Length must be equal to pricesForPeriods.",
          "pricesForPeriods": "the prices for the offered periods. Each entry at index corresponds to the same index at periods."
        }
      },
      "stopRequestBefore(bytes32[],address,bool)": {
        "params": {
          "fileReference": "the reference to the to-be-pinned file (when contentManager is not used) When called by a ContentManager is used, this fileReference can be a nonce (such that a contentManager smart-contract can be used to request pinning for multiple files)",
          "fromContentManager": "set to true if the caller is a contentManager",
          "provider": "the provider from which is proposed to take a StorageOffer."
        }
      },
      "stopRequestDuring(bytes32[],address,bool)": {
        "params": {
          "fileReference": "the reference to the to-be-pinned file (when contentManager is not used) When called by a ContentManager is used, this fileReference can be a nonce (such that a contentManager smart-contract can be used to request pinning for multiple files)",
          "fromContentManager": "set to true if the caller is a contentManager.",
          "provider": "the address of the provider of the StorageOffer."
        }
      },
      "topUpRequest(bytes32[],address,bool)": {
        "details": "any safeMath operations in this function don't cause a deadlock, as a possible revert just means we can't prolong the request for the desired duration\\",
        "params": {
          "fileReference": "the reference to the to-be-pinned file (when contentManager is not used) When called by a ContentManager is used, this fileReference can be a nonce (such that a contentManager smart-contract can be used to request pinning for multiple files)",
          "fromContentManager": "set to true if the caller is a contentManager.",
          "provider": "the address of the provider of the StorageOffer."
        }
      },
      "withdrawEarnings(bytes32[])": {
        "details": "any safeMath operations in this function don't cause a deadlock, as a possible revert just means we have to add less requestReferences",
        "params": {
          "requestReferences": "reference to one or more Requests"
        }
      }
    },
    "title": "PinningManager"
  },
  "userdoc": {
    "methods": {
      "acceptRequest(bytes32)": {
        "notice": "accepts a request. From now on, the provider is responsible for pinning the file"
      },
      "newRequest(bytes32[],address,uint120,uint64,address)": {
        "notice": "request to fill a storageOffer. After requesting, an offer must be accepted by provider to become active."
      },
      "setMaximumDuration(uint128)": {
        "notice": "set the maximumDuration for a StorageOffer."
      },
      "setStorageCapacity(uint128)": {
        "notice": "set the capacity of a StorageOffer. If already active before and set to 0, existing contracts can't be prolonged / re-started, no new contracts can be started."
      },
      "setStorageOffer(uint128,uint128,uint64[],uint64[])": {
        "notice": "set the capacity, maximumDuration and price of a StorageOffer."
      },
      "setStoragePrice(uint64[],uint64[])": {
        "notice": "set the price for a StorageOffer."
      },
      "stopRequestBefore(bytes32[],address,bool)": {
        "notice": "stops a Request before it is accepted and transfers all money paid in."
      },
      "stopRequestDuring(bytes32[],address,bool)": {
        "notice": "stops an active request."
      },
      "topUpRequest(bytes32[],address,bool)": {
        "notice": "extend the duration of the request."
      },
      "withdrawEarnings(bytes32[])": {
        "notice": "withdraws the to-withdraw balance of one or more Requests"
      }
    },
    "notice": "Storage providers can offer their storage space and list their price and clients can take these offers"
  }
}